:100000000C9434000C943E000C943E000C943E0082
:100010000C943E000C943E000C943E000C943E0068
:100020000C943E000C943E000C943E000C943E0058
:100030000C943E000C943E000C943E000C943E0048
:100040000C943E000C943E000C943E000C943E0038
:100050000C943E000C943E000C943E000C943E0028
:100060000C943E000C943E0011241FBECFEFD4E050
:10007000DEBFCDBF0E9440000C9471000C940000C4
:100080008AB180648AB984B5806884BD84B5826091
:1000900084BD84B5816084BD85B5816085BD80E007
:1000A00090E08F3F910564F487BD2FE738E341E08E
:1000B000215030404040E1F700C000000196F1CFF0
:1000C0008FEF90E01816190654F787BD2FE738E335
:1000D00041E0215030404040E1F700C0000001976E
:0600E000F1CFF894FFCF00
:00000001FF
